:100000000C9462000C948A000C948A000C948A0070
:100010000C948A000C948A000C948A000C948A0038
:100020000C948A000C948A000C948A000C948A0028
:100030000C948A000C948A000C948A000C948A0018
:100040000C947A050C948A000C9448050C942205B3
:100050000C948A000C948A000C948A000C948A00F8
:100060000C948A000C948A000000000024002700F1
:100070002A0000000000250028002B0000000008D6
:10008000000201000003040700000000000000005F
:1000900000000000230026002900040404040404D6
:1000A0000404020202020202030303030303010227
:1000B00004081020408001020408102001020408F6
:1000C0001020C40511241FBECFEFD8E0DEBFCDBF86
:1000D00011E0A0E0B1E0E2E5F5E102C005900D928B
:1000E000AC35B107D9F722E0ACE5B1E001C01D9213
:1000F000AC32B207E1F710E0C2E6D0E004C02197CD
:10010000FE010E945908C136D107C9F70E941106A5
:100110000C94A70A0C9400008F929F92AF92BF920A
:10012000CF92DF92EF92FF92CF93DF93A0912102C3
:10013000882311F03A2F01C030E08091220290E034
:10014000880F991F80579F4FC0902702D090280298
:10015000E0902902F0902A0240E050E0BA01FC0150
:10016000C591D49128812A2323130FC04A015B0132
:100170002FEF821A920AA20AB20A4C155D056E058B
:100180007F0538F4B501A401EACF342F252FCB0128
:1001900004C030E020E080E090E0632F722FDF9118
:1001A000CF91FF90EF90DF90CF90BF90AF909F9056
:1001B0008F900895CF92DF92EF92FF920F931F934B
:1001C000CF93DF936C017A018B01C0E0D0E0CE15B4
:1001D000DF0589F0D8016D918D01D601ED91FC917B
:1001E0000190F081E02DC6010995892B11F47E0163
:1001F00002C02196ECCFC701DF91CF911F910F91E3
:10020000FF90EF90DF90CF900895FC01918D828D4B
:10021000981761F0828DDF01A80FB11D5D968C915A
:10022000928D9F5F9F73928F90E008958FEF9FEF65
:100230000895FC01918D828D981731F0828DE80F21
:10024000F11D858D90E008958FEF9FEF0895FC01DB
:10025000918D228D892F90E0805C9F4F821B9109A8
:100260008F73992708958DE791E00E94270121E07F
:10027000892B09F420E0822F0895FC01848DDF0191
:10028000A80FB11DA35ABF4F2C91848D90E0019609
:100290008F739927848FA689B7892C93A089B189F8
:1002A0008C9180648C93938D848D981306C0028802
:1002B000F389E02D80818F7D80830895EF92FF92F6
:1002C0000F931F93CF93DF93EC0181E0888F9B8D79
:1002D0008C8D981305C0E889F989808185FD24C03B
:1002E000F62E0B8D10E00F5F1F4F0F731127E02EBE
:1002F0008C8DE8120CC00FB607FCFACFE889F9899B
:10030000808185FFF5CFCE010E943D01F1CF8B8D1D
:10031000FE01E80FF11DE35AFF4FF0820B8FEA89CF
:10032000FB898081806207C0EE89FF896083E8894C
:10033000F98980818064808381E090E0DF91CF91B2
:100340001F910F91FF90EF900895CF93DF93EC01F1
:10035000888D8823C9F0EA89FB89808185FD05C0E5
:10036000A889B9898C9186FD0FC00FB607FCF5CF1F
:10037000808185FFF2CFA889B9898C9185FFEDCF67
:10038000CE010E943D01E7CFDF91CF91089580E03B
:1003900090E0892B29F00E94330181110C94000018
:1003A000089590E0FC01E458FF4F3491FC01E255C0
:1003B000FF4F2491FC01E656FF4FE491EE2309F430
:1003C0003BC0332339F1333091F038F43130A9F0A8
:1003D000323001F584B58F7D12C0373091F038305E
:1003E000A1F03430B9F4809180008F7D03C08091FA
:1003F00080008F77809380000DC084B58F7784BD97
:1004000009C08091B0008F7703C08091B0008F7DCC
:100410008093B000F0E0EE0FFF1FEE58FF4FA59164
:10042000B4918FB7F894EC91611103C020952E23FD
:1004300001C02E2B2C938FBF0895CF93DF9390E0B4
:10044000FC01E255FF4F2491FC01E656FF4F8491D9
:10045000882361F190E0880F991FFC01E859FF4F54
:10046000C591D491FC01EE58FF4FA591B491611153
:1004700009C09FB7F8948881209582238883EC91E6
:100480002E230BC0623061F49FB7F8943881822F1D
:10049000809583238883EC912E2B2C939FBF06C0DD
:1004A0008FB7F894E8812E2B28838FBFDF91CF91EF
:1004B00008953FB7F89480915D0190915E01A091FD
:1004C0005F01B091600126B5A89B05C02F3F19F0D0
:1004D0000196A11DB11D3FBFBA2FA92F982F8827C4
:1004E000820F911DA11DB11DBC01CD0142E0660F1F
:1004F000771F881F991F4A95D1F708958F929F9271
:10050000AF92BF92CF92DF92EF92FF926B017C018C
:100510000E9459024B015C01C114D104E104F104B1
:10052000F1F00E945902DC01CB0188199909AA094E
:10053000BB09883E9340A105B10570F321E0C21AC2
:10054000D108E108F10888EE880E83E0981EA11C0E
:10055000B11CC114D104E104F10419F7DDCFFF90FF
:10056000EF90DF90CF90BF90AF909F908F900895C5
:10057000CF92DF92EF92FF920F931F93CF93DF936F
:10058000CDB7DEB7C054D1400FB6F894DEBF0FBE72
:10059000CDBF2FB7F8948091790190917A01A09105
:1005A0007B01B0917C012FBF409123025091240226
:1005B00060912502709126028C019D01041B150B90
:1005C000260B370BB901A801403D57406105710565
:1005D00018F480912B02BCC08093230290932402D4
:1005E000A0932502B093260210921E0210921D02C3
:1005F00010921C0210921B0210921A0261E080916C
:100600001F020E94D1016AEF70E080E090E00E943A
:100610007E0261E080911F020E941D0260E08091D5
:100620001F020E94D10164E170E080E090E00E942E
:100630007E02F89461E080911F020E94D1018BE953
:1006400090E00197F1F762E080911F020E941D0285
:1006500083E290E00197F1F780E00E948C00672B25
:10066000682B692B21F410922B0278943EC081E014
:100670000E948C00672B682B692BA9F38E010F5FFA
:100680001F4F6E012FEBC21A2EEFD20A780180E0C5
:100690000E948C00F701608371838283938381E0E1
:1006A0000E948C00F7016483758386839783F8E04A
:1006B000EF0EF11CEC14FD0451F7789420E030E0CB
:1006C000F8014081518162817381C480D580E680C8
:1006D000F780411551056105710529F0C114D10458
:1006E000E104F10421F410922B0280E031C0F90101
:1006F00083E0F595E7958A95E1F7E65EFD4F808109
:10070000880F4C155D056E057F0508F481608083B8
:100710002F5F3F4F085F1F4F2832310589F6209128
:100720001E0230E040911A0280911B0290E0840F7B
:10073000911D40911C02840F911D40911D02840F58
:10074000911D99272817390771F681E080932B02B4
:10075000C05CDE4F0FB6F894DEBF0FBECDBFDF9199
:10076000CF911F910F91FF90EF90DF90CF90089560
:10077000EF92FF920F931F93CF93DF93E82EF62E05
:10078000C7E0D0E0042F10E098010C2E02C0359590
:1007900027950A94E2F7B901617077278E2D0E94A0
:1007A000D10161E08F2D0E94D10160E08F2D0E9468
:1007B000D101219748F7DF91CF911F910F91FF90C1
:1007C000EF900895009769F0FC0101900020E9F78F
:1007D0003197AF01481B590BBC018DE791E00C9498
:1007E000DA0080E090E00895CF93DF930E94E20367
:1007F000EC018AE191E00E94E2038C0F9D1FDF91E2
:10080000CF9108958F929F92AF92BF920F931F93B3
:10081000CF93DF93CDB7DEB7A1970FB6F894DEBFC5
:100820000FBECDBF19A2423008F44AE08E010F5D21
:100830001F4F842E912CA12CB12CA50194010E9454
:100840002308E62FB901CA0101501109EA3014F456
:10085000E05D01C0E95CD801EC93232B242B252B10
:1008600061F7C8010E94E203A1960FB6F894DEBFBB
:100870000FBECDBFDF91CF911F910F91BF90AF9071
:100880009F908F9008954F925F926F927F928F9278
:100890009F92AF92BF92CF92DF92EF92FF926B0145
:1008A0007C01B42E9B01AC010E949D0A882319F0A3
:1008B0008DE191E027C026013701E89477F82FEF0A
:1008C0003FEF4FE75FE7C301B2010E949D0A81112C
:1008D0000DC02FEF3FEF4FE75FE7C301B2010E946A
:1008E000CC0818161CF481E291E00CC02FEF3FEF0A
:1008F0004FE75FE4C701B6010E942B0A181684F483
:1009000085E291E0FF90EF90DF90CF90BF90AF90A5
:100910009F908F907F906F905F904F900C94E20328
:100920002FEF3FEF4FE75FECC701B6010E94CC0805
:1009300087FDE6CF20E030E0A901C701B6010E94A3
:10094000CC0887FF11C0E0917D01F0917E010190FC
:10095000F081E02D6DE28DE791E009954C01F7FA09
:10096000F094F7F8F09402C0812C912CA12C60E057
:1009700070E080E09FE3AB1441F020E030E040E223
:1009800051E40E94D108A394F6CF9B01AC01C701AA
:10099000B6010E9460082B013C010E944A096B01CC
:1009A0007C010E9479099B01AC01C301B2010E9444
:1009B0005F082B013C014AE0C701B6010E94020416
:1009C0007C01E80CF91CBB2031F089E291E00E9427
:1009D000E203E80EF91EDB2CDD2021F120E030E0FF
:1009E00040E251E4C301B2010E94300A2B013C01F4
:1009F0000E944A094B01A12CB12C4AE0C501B40167
:100A00000E940204E80EF91EC501B4010E94790992
:100A10009B01AC01C301B2010E945F082B013C01A4
:100A2000DA94DACFC701FF90EF90DF90CF90BF90BC
:100A3000AF909F908F907F906F905F904F900895B0
:100A40000E94A20A1F920F920FB60F9211242F93A9
:100A50003F934F935F936F937F938F939F93AF9346
:100A6000BF93EF93FF938DE791E00E943D01FF91CB
:100A7000EF91BF91AF919F918F917F916F915F9116
:100A80004F913F912F910F900FBE0F901F9018958F
:100A90001F920F920FB60F9211242F938F939F9353
:100AA000EF93FF93E0918D01F0918E018081E091B1
:100AB0009301F091940182FD12C090818091960182
:100AC0008F5F8F7320919701821751F0E09196010B
:100AD000F0E0E358FE4F958F8093960101C080812E
:100AE000FF91EF919F918F912F910F900FBE0F90DB
:100AF0001F9018951F920F920FB60F9211242F93EB
:100B00003F938F939F93AF93BF938091790190917F
:100B10007A01A0917B01B0917C0130915C0123E0CE
:100B2000230F2D3720F40196A11DB11D05C026E825
:100B3000230F0296A11DB11D20935C0180937901C2
:100B400090937A01A0937B01B0937C0180915D0129
:100B500090915E01A0915F01B09160010196A11D8D
:100B6000B11D80935D0190935E01A0935F01B093EE
:100B70006001BF91AF919F918F913F912F910F9005
:100B80000FBE0F901F901895EDE7F1E013821282CF
:100B900088EE93E0A0E0B0E084839583A683B783DA
:100BA0008EE091E09183808385EC90E09587848747
:100BB00084EC90E09787868780EC90E0918B808B27
:100BC00081EC90E0938B828B82EC90E0958B848B10
:100BD00086EC90E0978B868B118E128E138E148E7E
:100BE000AAE1B2E082E015968C93159786E11696FD
:100BF0008C931697E0EBF0E0E4911796EC9317973F
:100C0000ECE9F0E0E4911896EC93189740E85EE385
:100C100060E070E01D964D935D936D937C935097CB
:100C20000895789484B5826084BD84B5816084BD64
:100C300085B5826085BD85B5816085BD80916E007A
:100C4000816080936E0010928100809181008260AB
:100C500080938100809181008160809381008091E8
:100C600080008160809380008091B10084608093D7
:100C7000B1008091B00081608093B00080917A00D3
:100C8000846080937A0080917A00826080937A00F9
:100C900080917A00816080937A0080917A008068E8
:100CA00080937A001092C10062E080911F020E943E
:100CB0001D0280E398EFAFEFBFEF80932302909384
:100CC0002402A0932502B0932602E0918D01F091B9
:100CD0008E0182E08083E0918901F0918A01108287
:100CE000E0918B01F0918C018FEC80831092950143
:100CF000E0919101F091920186E08083E0918F0173
:100D0000F0919001808180618083E0918F01F0916A
:100D10009001808188608083E0918F01F091900143
:100D2000808180688083E0918F01F09190018081C3
:100D30008F7D808361E086E00E941D0261E084E097
:100D40000E941D0261E085E00E941D02CAE0D0E021
:100D50000E94B8028823A1F1809120028B3041F1DA
:100D600078F18551823060F560911A0270E080E080
:100D700090E00E94790920E030E040E853E40E94CE
:100D8000300A6B017C0180911B02682F70E080E0CB
:100D900090E00E947B099B01AC01C701B6010E9453
:100DA00060082DEC3CEC4CEC5DE30E94300A0CC07A
:100DB00060911A0270E080E090E00E94790904C01E
:100DC00060E070E080EC9FE76093750170937601BE
:100DD00080937701909378010E94B8028823D1F123
:100DE000809120028B3029F0A8F18551823048F0A3
:100DF00031C060911C0270E080E090E00E947909AF
:100E00002DC010911C02612F6F7770E080E090E0A0
:100E10000E947B0920E030E040E853E40E94300A61
:100E20006B017C0180911D02682F70E080E090E0F2
:100E30000E947B099B01AC01C701B6010E946008BA
:100E40002DEC3CEC4CEC5DE30E94300A17FF06C031
:100E5000905804C060E070E080EC9FE760937101FF
:100E60007093720180937301909374018BE291E00F
:100E70000E94E20360917501709176018091770183
:100E80009091780142E00E94430485E391E00E9442
:100E9000F4038BE391E00E94E20360917101709191
:100EA0007201809173019091740142E00E944304A9
:100EB00088E491E00E94F4038BE491E00E94F40343
:100EC00020E030E040E251E46091710170917201E4
:100ED00080917301909174010E94300A0E9443092D
:100EE000CB01BE010E940F086C0190936E018093AC
:100EF0006D01CB01BE010E940F087C0190936C0133
:100F000080936B017093700160936F01CB01BE0100
:100F10000E940F088C0190936A018093690120E080
:100F200030E040E251E4609175017091760180916A
:100F30007701909178010E94300A0E944309CB0109
:100F4000BE010E940F083C019093660180936501E9
:100F5000CB01BE010E940F084C0190936401809365
:100F600063017093680160936701CB01BE010E9429
:100F70000F085C01909362018093610160E086E05C
:100F80000E94D10140E065E084E00E94B80340E0A7
:100F900065E084E00E94B803F301E050FF4F408118
:100FA00065E084E00E94B803F401E050FF4F408107
:100FB00065E084E00E94B803F501E050FF4F4081F6
:100FC00065E084E00E94B803F601E050FF4F4081E5
:100FD00065E084E00E94B803F701E050FF4F4081D4
:100FE00065E084E00E94B803F801E050FF4F4081C3
:100FF00065E084E00E94B80368EC70E080E090E077
:101000000E947E0261E086E00E94D10168EE73E0FA
:1010100080E090E00E947E020E94C70199CE97FB7B
:10102000072E16F4009407D077FD09D00E944508DA
:1010300007FC05D03EF4909581959F4F08957095DB
:1010400061957F4F0895A1E21A2EAA1BBB1BFD01DB
:101050000DC0AA1FBB1FEE1FFF1FA217B307E40797
:10106000F50720F0A21BB30BE40BF50B661F771FEF
:10107000881F991F1A9469F76095709580959095CF
:101080009B01AC01BD01CF010895AA1BBB1B51E11F
:1010900007C0AA1FBB1FA617B70710F0A61BB70BE8
:1010A000881F991F5A95A9F780959095BC01CD018D
:1010B0000895EE0FFF1F0590F491E02D099450580C
:1010C000BB27AA270E9477080C94F1090E94E30924
:1010D00038F00E94EA0920F039F49F3F19F426F411
:1010E0000C94E0090EF4E095E7FB0C94DA09E92F83
:1010F0000E94020A58F3BA1762077307840795071C
:1011000020F079F4A6F50C94240A0EF4E0950B2E49
:10111000BA2FA02D0B01B90190010C01CA01A00149
:101120001124FF27591B99F0593F50F4503E68F1A4
:101130001A16F040A22F232F342F4427585FF3CFE5
:10114000469537952795A795F0405395C9F77EF4B6
:101150001F16BA0B620B730B840BBAF09150A1F0FF
:10116000FF0FBB1F661F771F881FC2F70EC0BA0F85
:10117000621F731F841F48F4879577956795B7950D
:10118000F7959E3F08F0B0CF9395880F08F0992708
:10119000EE0F9795879508950E94B60908F481E0AF
:1011A00008950E94E5080C94F1090E94EA0958F09C
:1011B0000E94E30940F029F45F3F29F00C94DA091A
:1011C00051110C94250A0C94E0090E94020A68F35C
:1011D0009923B1F3552391F3951B550BBB27AA27F0
:1011E00062177307840738F09F5F5F4F220F331F2A
:1011F000441FAA1FA9F335D00E2E3AF0E0E832D0F2
:1012000091505040E695001CCAF72BD0FE2F29D0F4
:10121000660F771F881FBB1F261737074807AB07C6
:10122000B0E809F0BB0B802DBF01FF2793585F4F3B
:101230003AF09E3F510578F00C94DA090C94250A97
:101240005F3FE4F3983ED4F3869577956795B7951D
:10125000F7959F5FC9F7880F911D9695879597F928
:101260000895E1E0660F771F881FBB1F62177307A1
:101270008407BA0720F0621B730B840BBA0BEE1FB6
:1012800088F7E09508950E944A096894B1110C947A
:10129000250A08950E940A0A88F09F5798F0B92FEE
:1012A0009927B751B0F0E1F0660F771F881F991F9B
:1012B0001AF0BA95C9F714C0B13091F00E94240A0F
:1012C000B1E008950C94240A672F782F8827B85F1F
:1012D00039F0B93FCCF3869577956795B395D9F7F3
:1012E0003EF490958095709561957F4F8F4F9F4FFD
:1012F0000895E89409C097FB3EF490958095709509
:1013000061957F4F8F4F9F4F9923A9F0F92F96E951
:10131000BB279395F695879577956795B795F111C6
:10132000F8CFFAF4BB0F11F460FF1BC06F5F7F4F63
:101330008F4F9F4F16C0882311F096E911C0772375
:1013400021F09EE8872F762F05C0662371F096E87E
:10135000862F70E060E02AF09A95660F771F881F4D
:10136000DAF7880F9695879597F90895990F0008F1
:10137000550FAA0BE0E8FEEF16161706E807F90767
:10138000C0F012161306E407F50798F0621B730B02
:10139000840B950B39F40A2661F0232B242B252B83
:1013A00021F408950A2609F4A140A6958FEF811D26
:1013B000811D089597F99F6780E870E060E00895C7
:1013C0009FEF80EC089500240A941616170618065D
:1013D0000906089500240A94121613061406050639
:1013E0000895092E0394000C11F4882352F0BB0FCA
:1013F00040F4BF2B11F460FF04C06F5F7F4F8F4F2D
:101400009F4F089557FD9058440F551F59F05F3F67
:1014100071F04795880F97FB991F61F09F3F79F016
:1014200087950895121613061406551FF2CF469598
:10143000F1DF08C0161617061806991FF1CF86951A
:101440007105610508940895E894BB2766277727FE
:10145000CB0197F908950E94B60908F48FEF08951B
:101460000E94430A0C94F1090E94E30938F00E949B
:10147000EA0920F0952311F00C94DA090C94E009A4
:1014800011240C94250A0E94020A70F3959FC1F35F
:10149000950F50E0551F629FF001729FBB27F00D22
:1014A000B11D639FAA27F00DB11DAA1F649F662777
:1014B000B00DA11D661F829F2227B00DA11D621FC6
:1014C000739FB00DA11D621F839FA00D611D221F80
:1014D000749F3327A00D611D231F849F600D211D64
:1014E000822F762F6A2F11249F5750409AF0F1F0E7
:1014F00088234AF0EE0FFF1FBB1F661F771F881F50
:1015000091505040A9F79E3F510580F00C94DA09A4
:101510000C94250A5F3FE4F3983ED4F386957795C3
:101520006795B795F795E7959F5FC1F7FE2B880FF5
:10153000911D9695879597F908950E94B609880B95
:10154000990B089581E090E0F8940C94A70AF89420
:02155000FFCFCB
:101552003F065B4F666D7D077F6F000000005E01F6
:10156200DA00270105011901A5010D0A006E616E5D
:1015720000696E66006F7666002E0048756D6964BC
:101582006974793A0020252020200054656D706529
:101592007261747572653A002043002A2A2A2A2A47
:0C15A2002A2A2A2A2A2A2A2A2A2A000099
:00000001FF
